S00F0000526F626F5465632E7372656367
S11300000C9456010C9473010C9473010C947301B9
S11300100C9473010C9473010C9473010C9473018C
S11300200C9473010C9473010C9473010C9473017C
S11300300C9473010C9473010C9473010C9473016C
S11300400C9473010C9473010C9473010C9473015C
S11300500C9473010C9473010C9473010C9473014C
S11300600C9473010C9473010C9473010C9473013C
S11300700C9473010C9436040C9473010C94730166
S11300800C9473010C9473010C9473010C9473011C
S11300900C9473010C9473010C9473010C9473010C
S11300A00C9473010C9473010C947301F5017203A5
S11300B03504180335043504EB02B3033504350461
S11300C035043504BE023504AF03D00335043504CA
S11300D03504350435043504350435040C02C103F4
S11300E03504EA03AB0335043504F9033504350458
S11300F03504350435043504350435043504350434
S11301003504350435043504350435043702350423
S11301103504E3033504350435043504A7033504F5
S1130120350408043504350435041704350435044E
S113013035043504350435043504350435043504F3
S113014035043504350435043504350435043504E3
S113015035043504350435043504350435043504D3
S11301603504350435043504350435046402350496
S113017035043504350435043504350435043504B3
S1130180350435043504350435043504A303350436
S11301903504350435043504350435043504350493
S11301A03504350435043504350427044503350482
S11301B03504350435043504350435043504350473
S11301C03504350435043504350435043504350463
S11301D0350435043504350435043504BA033504CF
S11301E03504350435043504350435043504350443
S11301F03504350435043504350435043504350433
S11302003504350435043504350435043504350422
S11302103504350435043504350435043504350412
S113022035043504350435043504350491023504A8
S113023035043504350435043504350435043504F2
S113024035043504D8033504350435043504350440
S1130250350435043504350435043504DC0335042C
S11302603504350401043504350435049F0335048D
S113027035043504350435043504350435043504B2
S1130280350435043504350435043504C803350410
S1130290350435043504350435043504F1033504D7
S11302A0350435040F0435041F042F0411241FBE24
S11302B0CFEFDAE0DEBFCDBF11E0A0E0B1E0ECE2C9
S11302C0F9E002C005900D92AC33B107D9F721E0F3
S11302D0ACE3B1E001C01D92AB34B207E1F70E9478
S11302E04C040C9494040C94000084B1806984B987
S11302F03F9A879A84B1806684B9E0E8F0E080810F
S1130300806A8083808182608083E1E8F0E080817C
S1130310886180838081816080838FEF90E09093F7
S113032087008093860084E091E00E94A0010895F4
S1130330E8ECF0E0908195FFFDCF8093CE00089526
S11303400F931F93CF93DF93FC0101900020E9F7F3
S113035031971E2F181B51F0082FC02FD92F8991C8
S11303600E9498018C2F801B8117C8F38DE00E9496
S113037098018AE00E949801DF91CF911F910F911B
S113038008951092CD0080E18093CC00E8ECF0E079
S113039080818260808388E18093C90086E08093B5
S11303A0CA00089583B12FB199B120778F70822B41
S11303B09078892B08951092440110924301109271
S11303C00001109201011092020110920301109297
S11303D03D0110923E0110923F011092400190E0C5
S11303E0FC01EA5AFF4F0C948E0480914201813043
S11303F019F0823041F00DC060E084E60E947F0471
S11304001092420106C060E084E60E947F041092CC
S1130410420110924101089580914101883111F007
S113042010923C0180914501909146018C3D95408C
S113043051F480913C018D5F80933C011092460100
S11304401092450109C080914501909146010196A1
S1130450909346018093450180913C018C5980938F
S113046043010E94700488E18093410108958091C2
S11304704101803319F08AE080933C018091450169
S113048090914601803D974051F480913C018D5FED
S113049080933C01109246011092450109C080915D
S11304A04501909146010196909346018093450140
S11304B060913C016C596093430184E60E947F047F
S11304C080E380934101089580914101803619F0C1
S11304D08EE180933C018091450190914601843CDA
S11304E0994051F480913C01865F80933C011092C5
S11304F046011092450109C0809145019091460141
S11305000196909346018093450160913C016C599A
S11305106093430184E60E947F0480E68093410156
S1130520089580914101803C19F08DE280933C0153
S11305308091450190914601843C994051F4809109
S11305403C018C5E80933C0110924601109245015F
S113055009C080914501909146010196909346010E
S11305608093450160913C016C596093430182E39F
S11305700E947F0480EC80934101089580914101A1
S11305808C3019F08AE080933C0180914501909170
S11305904601803D974051F480913C018D5F8093EA
S11305A03C01109246011092450109C08091450119
S11305B09091460101969093460180934501809164
S11305C03C018C598093440164E60E947F048CE0D2
S11305D080934101089580914101863019F08EE1A4
S11305E080933C018091450190914601843C99405F
S11305F051F480913C01865F80933C011092460146
S11306001092450109C080914501909146010196DF
S1130610909346018093450180913C018C598093CD
S1130620440164E60E947F0486E0809341010895BA
S113063080914101833019F08DE280933C018091D7
S1130640450190914601843C994051F480913C01CC
S11306508C5E80933C01109246011092450109C0C2
S113066080914501909146010196909346018093B3
S1130670450180913C018C598093440162E30E94BE
S11306807F0483E080934101089580914101803883
S113069019F08BE480933C018091450190914601CF
S11306A0843C994051F480913C01875E80933C01E5
S11306B0109246011092450109C080914501909124
S11306C046010196909346018093450160913C0157
S11306D06C59609343018EE10E947F0480E880930B
S11306E04101089580914101813019F08BE4809398
S11306F03C018091450190914601843C994051F41C
S113070080913C01875E80933C01109246011092D7
S1130710450109C08091450190914601019690934D
S113072046018093450180913C018C59809344019A
S11307306EE10E947F0481E080934101089580EE80
S113074080934101089580E780934101089588E3EF
S11307508093410108958CE18093410108958EE0D6
S113076080934101089582E08093420187E0809361
S11307704101089581E08093420188E98093410119
S1130780089582E08093420189E1809341010895B4
S113079064E180E00E947F0480EF8093410108952A
S11307A060E084E10E947F048FE08093410108951A
S11307B08CEC80934101089581E08093420188ED9F
S11307C080934101089582E08093420183E3809302
S11307D04101089582E0809342018BE180934101BD
S11307E0089564E180E00E947F0488EF80934101D2
S11307F0089560E084E10E947F048FE180934101C9
S1130800089581E0809342018CED80934101089525
S113081082E0809342018BE380934101089564E177
S113082080E00E947F048CEF80934101089564E18D
S113083080E00E947F048FE380934101089560E08B
S113084082E30E947F048EEF80934101089562E366
S113085080E00E947F048FE780934101089584E63D
S11308600E9470048FEF8093410108951F920F92AC
S11308700FB60F9211248F939F93809178009091DB
S1130880790090934801809347019F918F910F9035
S11308900FBE0F901F90189584B1806F84B93F9A52
S11308A0579884B1807F84B980B38F7880BB85B139
S11308B0807F85B981B38F7881BB5F98509A0E94FD
S11308C0C1010E94750183E291E00E94A0010E948F
S11308D0D20180934901809149010E94DB01F7CF45
S11308E047982F988F9A2C9A90E090938900809340
S11308F08800059690938B0080938A00089590E079
S1130900909389008093880070E070938B006093CB
S11309108A0047982F988F9A2C9A0895EE0FFF1FFC
S10F09200590F491E02D0994F894FFCFA9
S113092C0000604150574D20696E697469616C69AF
S113093C7A6174696F6E2066696E69736865642187
S113094C0D0A00496E697469616C69736174696F2D
S10F095C6E2066696E69736865642E0085
S9030000FC
