:100000000C9456010C9473010C9473010C947301BD
:100010000C9473010C9473010C9473010C94730190
:100020000C9473010C9473010C9473010C94730180
:100030000C9473010C9473010C9473010C94730170
:100040000C9473010C9473010C9473010C94730160
:100050000C9473010C9473010C9473010C94730150
:100060000C9473010C9473010C9473010C94730140
:100070000C9473010C9442040C9473010C9473015E
:100080000C9473010C9473010C9473010C94730120
:100090000C9473010C9473010C9473010C94730110
:1000A0000C9473010C9473010C947301F5017E039D
:1000B0004104240341044104F702BF034104410405
:1000C00041044104CA024104BB03DC03410441046E
:1000D0004104410441044104410441041802CD0398
:1000E0004104F603B70341044104050441044104FB
:1000F00041044104410441044104410441044104D8
:1001000041044104410441044104410443024104C7
:100110004104EF034104410441044104B303410499
:1001200041041404410441044104230441044104F2
:100130004104410441044104410441044104410497
:100140004104410441044104410441044104410487
:100150004104410441044104410441044104410477
:10016000410441044104410441044104700241043A
:100170004104410441044104410441044104410457
:10018000410441044104410441044104AF034104DA
:100190004104410441044104410441044104410437
:1001A0004104410441044104410433045103410426
:1001B0004104410441044104410441044104410417
:1001C0004104410441044104410441044104410407
:1001D000410441044104410441044104C603410473
:1001E00041044104410441044104410441044104E7
:1001F00041044104410441044104410441044104D7
:1002000041044104410441044104410441044104C6
:1002100041044104410441044104410441044104B6
:100220004104410441044104410441049D0241044C
:100230004104410441044104410441044104410496
:1002400041044104E40341044104410441044104E4
:10025000410441044104410441044104E8034104D0
:10026000410441040D04410441044104AB03410431
:100270004104410441044104410441044104410456
:10028000410441044104410441044104D4034104B4
:10029000410441044104410441044104FD0341047B
:1002A000410441041B0441042B043B0411241FBEE0
:1002B000CFEFDAE0DEBFCDBF11E0A0E0B1E0E4E4D3
:1002C000F9E002C005900D92AC33B107D9F721E0F7
:1002D000ACE3B1E001C01D92AB34B207E1F70E947C
:1002E00058040C94A0040C94000084B1806984B973
:1002F0003F9A879A84B1806684B9E0E8F0E0808113
:10030000806A8083808182608083E1E8F0E0808180
:10031000886180838081816080838FEF90E09093FB
:1003200087008093860084E091E00E94A0010895F8
:10033000E8ECF0E0908195FFFDCF8093CE0008952A
:100340000F931F93CF93DF93FC0101900020E9F7F7
:1003500031971E2F181B51F0082FC02FD92F8991CC
:100360000E9498018C2F801B8117C8F38DE00E949A
:1003700098018AE00E949801DF91CF911F910F911F
:1003800008951092CD0080E18093CC00E8ECF0E07D
:1003900080818260808388E18093C90086E08093B9
:1003A000CA00089583B12FB199B120778F70822B45
:1003B0009078892B08951092440110924301109275
:1003C000000110920101109202011092030110929B
:1003D0003D0110923E0110923F011092400190E0C9
:1003E000FC01EA5AFF4F0C949A0480914101883134
:1003F00021F0803311F08C3021F484E60E947C04DB
:1004000014C080914201813019F0823041F00DC05A
:1004100060E086E40E948B041092420106C060E016
:1004200086E40E948B0410924201109241010895CB
:1004300080914101883111F010923C018091450179
:10044000909146018C34944051F480913C018D5F31
:1004500080933C01109246011092450109C08091A1
:100460004501909146010196909346018093450184
:1004700080913C018C59809343010E947C0488E167
:1004800080934101089580914101803319F08AE001
:1004900080933C0180914501909146018C3D9540AF
:1004A00051F480913C018D5F80933C011092460194
:1004B0001092450109C08091450190914601019635
:1004C000909346018093450160913C016C59609383
:1004D000430184E60E948B0480E3809341010895E8
:1004E00080914101803619F089E180933C0180912F
:1004F000450190914601843A964051F480913C0127
:10050000855F80933C01109246011092450109C01D
:100510008091450190914601019690934601809308
:10052000450160913C016C596093430184E60E944F
:100530008B0480E680934101089580914101803CC5
:1005400019F083E280933C0180914501909146012E
:100550008839984051F480913C01815F80933C013F
:10056000109246011092450109C080914501909179
:1005700046010196909346018093450160913C01AC
:100580006C596093430182E30E948B0480EC80935A
:1005900041010895809141018C3019F08AE08093E7
:1005A0003C0180914501909146018C3D954051F46C
:1005B00080913C018D5F80933C0110924601109226
:1005C000450109C0809145019091460101969093A3
:1005D00046018093450180913C018C5980934401F0
:1005E00064E60E948B048CE0809341010895809121
:1005F0004101863019F089E180933C0180914501E9
:1006000090914601843A964051F480913C01855F77
:1006100080933C01109246011092450109C08091DF
:1006200045019091460101969093460180934501C2
:1006300080913C018C598093440164E60E948B04B4
:1006400086E080934101089580914101833019F043
:1006500083E280933C018091450190914601883965
:10066000984051F480913C01815F80933C0110924D
:1006700046011092450109C08091450190914601C3
:100680000196909346018093450180913C018C59DD
:100690008093440162E30E948B0483E080934101D4
:1006A000089580914101803819F081E480933C01E4
:1006B00080914501909146018839984051F480918C
:1006C0003C018F5E80933C011092460110924501DF
:1006D00009C0809145019091460101969093460191
:1006E0008093450160913C016C59609343018EE118
:1006F0000E948B0480E8809341010895809141011C
:10070000813019F081E480933C0180914501909102
:1007100046018839984051F480913C018F5E809366
:100720003C01109246011092450109C0809145019B
:1007300090914601019690934601809345018091E6
:100740003C018C59809344016EE10E948B0481E04E
:1007500080934101089580EE80934101089580E7E0
:1007600080934101089588E38093410108958CE1CD
:100770008093410108958EE080934101089582E0C5
:100780008093420187E080934101089581E0809346
:10079000420188E980934101089582E080934201FB
:1007A00089E180934101089564E180E00E948B0417
:1007B00080EF80934101089560E084E10E948B0402
:1007C0008FE08093410108958CEC8093410108955E
:1007D00081E08093420188ED80934101089582E099
:1007E0008093420183E380934101089582E08093E6
:1007F00042018BE180934101089564E180E00E9411
:100800008B0488EF80934101089560E084E10E94A9
:100810008B048FE180934101089581E08093420130
:100820008CED80934101089582E0809342018BE337
:1008300080934101089564E180E00E948B048CEF75
:1008400080934101089564E180E00E948B048FE36E
:1008500080934101089560E082E30E948B048EEF53
:1008600080934101089562E380E00E948B048FE74A
:1008700080934101089584E60E947C048FEF809369
:10088000410108951F920F920FB60F9211248F937A
:100890009F93809178009091790090934801809384
:1008A00047019F918F910F900FBE0F901F90189549
:1008B00084B1806F84B93F9A579884B1807F84B99E
:1008C00080B38F7880BB85B1807F85B981B38F7805
:1008D00081BB5F98509A0E94C1010E94750183E21A
:1008E00091E00E94A0010E94D20180934901809171
:1008F00049010E94DB01F7CF47982F988F9A2C9AD5
:1009000090E09093890080938800059690938B00E7
:1009100080938A00089590E09093890080938800E6
:1009200070E070938B0060938A0047982F988F9A9D
:100930002C9A0895EE0FFF1F0590F491E02D099475
:04094000F894FFCF59
:100944000000604150574D20696E697469616C699B
:100954007A6174696F6E2066696E69736865642173
:100964000D0A00496E697469616C69736174696F19
:0C0974006E2066696E69736865642E0071
:00000001FF
