S00F0000526F626F5465632E7372656367
S11300000C9479000C9496000C9496000C94960031
S11300100C9496000C9496000C9496000C94960004
S11300200C9496000C9496000C9496000C949600F4
S11300300C9496000C9496000C9496000C949600E4
S11300400C9496000C9496000C9496000C949600D4
S11300500C9496000C9496000C9496000C949600C4
S11300600C9496000C9496000C9496000C949600B4
S11300700C9496000C948A020C9496000C949600AE
S11300800C9496000C9496000C9496000C94960094
S11300900C9496000C9496000C9496000C94960084
S11300A00C9496000C9496000C949600B800CF0023
S11300B06F016F01E600FD0014016F016F016F0114
S11300C06F016F016F016F016F016F016F016F01AC
S11300D06F016F016F016F016F016F016F016F019C
S11300E06F016F016F016F016F016F012B014201FD
S11300F0590111241FBECFEFDAE0DEBFCDBF11E0FE
S1130100A0E0B1E0E4ECF5E002C005900D92A2326B
S1130110B107D9F721E0A2E2B1E001C01D92AA32F1
S1130120B207E1F70E94BC020C94E0020C940000B8
S1130130ECE7F0E08081806C8083EAE7F0E0808186
S113014088628083ABE7B0E08C9180688C93808177
S113015080688083808180648083089590E0833206
S1130160910508F0BCC0FC01EA5AFF4F0C94CB0285
S1130170EBE7F0E080818F7D8083ECE7F0E0808125
S11301808F7E80838081877F808380818B7F808343
S113019080818D7F808380818E7F80830895EBE7CB
S11301A0F0E080818F7D8083ECE7F0E080818F7EBA
S11301B080838081877F808380818B7F808380811F
S11301C08D7F80838081816080830895EBE7F0E0F8
S11301D080818F7D8083ECE7F0E080818F7E808357
S11301E08081877F808380818460808380818D7F0C
S11301F0808380818E7F80830895EBE7F0E08081A7
S11302008F7D8083ECE7F0E080818F7E8083808126
S1130210877F808380818460808380818D7F8083D9
S11302208081816080830895EBE7F0E080818F7D99
S11302308083ECE7F0E080818F7E80838081877FFC
S113024080838081846080838081826080838081D8
S11302508E7F80830895EBE7F0E080818062808365
S1130260ECE7F0E080818F7E80838081877F8083CC
S113027080818B7F808380818D7F808380818E7F4E
S113028080830895EBE7F0E0808180628083ECE76F
S1130290F0E080818F7E80838081877F808380816E
S11302A08B7F808380818D7F808380818160808348
S11302B00895EBE7F0E0808180628083ECE7F0E072
S11302C080818F7E80838081877F808380818B7F04
S11302D0808380818260808380818E7F8083089583
S11302E0E8ECF0E0908195FFFDCF8093CE00089577
S11302F00F931F93CF93DF93FC0101900020E9F744
S113030031971E2F181B51F0082FC02FD92F899118
S11303100E9470018C2F801B8117C8F38DE00E940E
S113032070018AE00E947001DF91CF911F910F91BB
S113033008951F93CF93DF93AC019C01ADECBCEC0B
S11303400E94D1029695879596958795969587955F
S11303509C01220F331F880F991F880F991F880F44
S1130360991F820F931FEA01C81BD90BC05D9A0124
S11303700E94D102AC0156954795569547955695DE
S113038047959A010E94D1029C013695279536958E
S1130390279536952795C901880F991F220F331F7A
S11303A0220F331F220F331F280F391FCA01821B4C
S11303B0930BD0E3D80F9A010E94D102AC01569559
S11303C0479556954795569547959A010E94D102AF
S11303D09C01369527953695279536952795C9011D
S11303E0880F991F220F331F220F331F220F331F31
S11303F0280F391FCA01821B930B10E3180F9A01AF
S11304000E94D102AC01569547955695479556954D
S113041047959A010E94D10296958795969587955E
S113042096958795BC01660F771F9C01220F331F99
S1130430220F331F220F331F260F371F421B530B6C
S113044080E3840F803311F00E947001103319F09F
S1130450812F0E947001D03319F08D2F0E947001FA
S1130460C03319F08C2F0E9470018DE00E9470013E
S11304708AE00E947001DF91CF911F91089510923C
S1130480CD0080E18093CC00E8ECF0E080818260D4
S1130490808388E18093C90086E08093CA00089530
S11304A02FC081E40E9470018AE30E947001809150
S11304B02701909128010E94990183E40E94700110
S11304C08AE30E94700180912201805D0E94700184
S11304D08DE00E9470018AE00E947001E091220187
S11304E0E83018F0109222010BC0F0E0E050FF4F0A
S11304F080810E94AE00809122018F5F809322014F
S11305008091270190912801843F914050F280917D
S1130510290108951F920F920FB60F9211242F9361
S11305208F939F938091230190912401803127E23E
S11305309207A9F4809127019091280190932601B4
S113054080932501809178009091790090932801FF
S113055080932701109224011092230105C0019673
S113056090932401809323019F918F912F910F9059
S11305700FBE0F901F9018950E943F020E94980092
S113058088E091E00E94780178940E9450020E94D1
S1130590CA02FBCF0895EE0FFF1F0590F491E02DE2
S11305A00994A29FB001B39FC001A39F700D811D48
S11305B01124911DB29F700D811D1124911D089568
S10705C0F894FFCFD9
S11305C40001040506202122496E697469616C697D
S11305D4736174696F6E2066696E69736865642EED
S10505E4000011
S9030000FC
