:100000000C9456000C9473000C9473000C947300C1
:100010000C9473000C9473000C9473000C94730094
:100020000C9473000C9473000C9473000C94730084
:100030000C9473000C9473000C9473000C94730074
:100040000C9473000C9473000C9473000C94730064
:100050000C9473000C9473000C9473000C94730054
:100060000C9473000C9473000C9473000C94730044
:100070000C9473000C9474010C9473000C94730032
:100080000C9473000C9473000C9473000C94730024
:100090000C9473000C9473000C9473000C94730014
:1000A0000C9473000C9473000C94730011241FBE05
:1000B000CFEFDAE0DEBFCDBF11E0A0E0B1E0E8ECC9
:1000C000F3E002C005900D92A831B107D9F721E005
:1000D000A8E1B1E001C01D92AB31B207E1F70E9487
:1000E000C3010C94E2010C940000ECE7F0E0808185
:1000F000806C8083EAE7F0E0808188628083ABE7F0
:10010000B0E08C9180688C9380818068808380814E
:10011000806480830895ECE7F0E09081907F908385
:100120009081892B80830895E8ECF0E0908195FF21
:10013000FDCF8093CE0008950F931F93CF93DF934D
:10014000FC0101900020E9F731971E2F181B51F098
:10015000082FC02FD92F89910E9494008C2F801BCB
:100160008117C8F38DE00E9494008AE00E949400F9
:10017000DF91CF911F910F9108951F93CF93DF933C
:10018000AC019C01ADECBCEC0E94D3019695879527
:1001900096958795969587959C01220F331F880F1A
:1001A000991F880F991F880F991F820F931FEA01CB
:1001B000C81BD90BC05D9A010E94D301AC015695B2
:1001C000479556954795569547959A010E94D301B4
:1001D0009C01369527953695279536952795C90123
:1001E000880F991F220F331F220F331F220F331F37
:1001F000280F391FCA01821B930BD0E3D80F9A0135
:100200000E94D301AC015695479556954795569552
:1002100047959A010E94D3019C0136952795369502
:10022000279536952795C901880F991F220F331FEF
:10023000220F331F220F331F280F391FCA01821BC1
:10024000930B10E3180F9A010E94D301AC0156954D
:10025000479556954795569547959A010E94D30123
:10026000969587959695879596958795BC01660F87
:10027000771F9C01220F331F220F331F220F331FC2
:10028000260F371F421B530B80E3840F803311F07E
:100290000E949400103319F0812F0E949400D033F3
:1002A00019F08D2F0E949400C03319F08C2F0E94FA
:1002B00094008DE00E9494008AE00E949400DF91F7
:1002C000CF911F9108951092CD0080E18093CC00D2
:1002D000E8ECF0E080818260808388E18093C9004F
:1002E00086E08093CA0008951F920F920FB60F9276
:1002F00011248F939F93809178009091790090932F
:100300001901809318019F918F910F900FBE0F904C
:100310001F9018952FC081E40E9494008AE30E94E8
:10032000940080911801909119010E94BD0083E40E
:100330000E9494008AE30E94940080911A01805DDB
:100340000E9494008DE00E9494008AE00E94940034
:1003500080911A01883018F010921A010BC0F8949D
:1003600080911A010E948B0080911A018F5F809307
:100370001A0178948091180190911901843F91405D
:1003800050F280E008950E9463010E947500809100
:100390001A010E948B0080E091E00E949C007894FA
:1003A0000E948A01FDCFA29FB001B39FC001A39F0D
:1003B000700D811D1124911DB29F700D811D11249E
:0803C000911D0895F894FFCF90
:1003C800496E697469616C69736174696F6E2066DE
:0803D800696E69736865640039
:00000001FF
