S00F0000526F626F5465632E7372656367
S11300000C9456000C9473000C9473000C947300BD
S11300100C9473000C9473000C9473000C94730090
S11300200C9473000C9473000C9473000C94730080
S11300300C9473000C9473000C9473000C94730070
S11300400C9473000C9473000C9473000C94730060
S11300500C9473000C9473000C9473000C94730050
S11300600C9473000C9473000C9473000C94730040
S11300700C9473000C94E8000C9473000C947300BB
S11300800C9473000C9473000C9473000C94730020
S11300900C9473000C9473000C9473000C94730010
S11300A00C9473000C9473000C94730011241FBE01
S11300B0CFEFDAE0DEBFCDBF11E0A0E0B1E0E6E3D0
S11300C0F2E002C005900D92A833B107D9F721E000
S11300D0A8E3B1E001C01D92AA33B207E1F70E9480
S11300E0FE000C9419010C940000ECE7F0E0808110
S11300F0806C8083EAE7F0E0808188628083ABE7EC
S1130100B0E08C9180688C9380818068808380814A
S113011080648083089584B1806984B93F9A879A02
S113012084B1806684B9E0E8F0E08081806A8083ED
S1130130808182608083E1E8F0E08081886180834F
S11301408081816080838FEF90E09093870080931B
S1130150860080E091E00E94B6000895E8ECF0E0AB
S1130160908195FFFDCF8093CE0008950F931F9348
S1130170CF93DF93FC0101900020E9F731971E2F04
S1130180181B51F0082FC02FD92F89910E94AE005F
S11301908C2F801B8117C8F38DE00E94AE008AE08B
S11301A00E94AE00DF91CF911F910F91089510929C
S11301B0CD0080E18093CC00E8ECF0E080818260A7
S11301C0808388E18093C90086E08093CA00089503
S11301D01F920F920FB60F9211248F939F938091C9
S11301E078009091790090933901809338019F9120
S11301F08F910F900FBE0F901F901895EEE7F0E0CF
S1130200808183678083EDE7F0E08081876080836D
S113021084B1806F84B93F9A879A0E94D7000E9464
S113022075000E948B008FE191E00E94B6007894E3
S1090230FFCFF894FFCF9C
S113023650574D20696E697469616C697A61746995
S11302466F6E2066696E6973686564210D0A0049DC
S11302566E697469616C69736174696F6E2066692D
S10B02666E69736865642E00E3
S9030000FC
