S00F0000526F626F5465632E7372656367
S11300000C9456010C9473010C9473010C947301B9
S11300100C9473010C9473010C9473010C9473018C
S11300200C9473010C9473010C9473010C9473017C
S11300300C9473010C9473010C9473010C9473016C
S11300400C9473010C9473010C9473010C9473015C
S11300500C9473010C9473010C9473010C9473014C
S11300600C9473010C9473010C9473010C9473013C
S11300700C9473010C9454040C9473010C94730148
S11300800C9473010C9473010C9473010C9473011C
S11300900C9473010C9473010C9473010C9473010C
S11300A00C9473010C9473010C947301F5017E0399
S11300B05304240353045304F702BF0353045304A7
S11300C053045304CA025304BB03DE03530453040E
S11300D05304530453045304530453041802CD0328
S11300E05304FA03B703530453040B045304530493
S11300F05304530453045304530453045304530444
S11301005304530453045304530453044302530445
S11301105304F3035304530453045304B303530425
S113012053041C045304530453042D045304530470
S11301305304530453045304530453045304530403
S113014053045304530453045304530453045304F3
S113015053045304530453045304530453045304E3
S113016053045304530453045304530470025304B8
S113017053045304530453045304530453045304C3
S1130180530453045304530453045304AF03530458
S113019053045304530453045304530453045304A3
S11301A053045304530453045304410451035304A8
S11301B05304530453045304530453045304530483
S11301C05304530453045304530453045304530473
S11301D0530453045304530453045304C6035304F1
S11301E05304530453045304530453045304530453
S11301F05304530453045304530453045304530443
S11302005304530453045304530453045304530432
S11302105304530453045304530453045304530422
S11302205304530453045304530453049D025304CA
S11302305304530453045304530453045304530402
S113024053045304E803530453045304530453045E
S1130250530453045304530453045304EC0353044A
S1130260530453041504530453045304AB035304B9
S113027053045304530453045304530453045304C2
S1130280530453045304530453045304D403530432
S113029053045304530453045304530401045304F4
S11302A0530453042304530437044B0411241FBE82
S11302B0CFEFDAE0DEBFCDBF11E0A0E0B1E0E8E6C9
S11302C0F9E002C005900D92AC33B107D9F721E0F3
S11302D0ACE3B1E001C01D92AB34B207E1F70E9478
S11302E06A040C94B2040C94000084B1806984B94B
S11302F03F9A879A84B1806684B9E0E8F0E080810F
S1130300806A8083808182608083E1E8F0E080817C
S1130310886180838081816080838FEF90E09093F7
S113032087008093860084E091E00E94A0010895F4
S1130330E8ECF0E0908195FFFDCF8093CE00089526
S11303400F931F93CF93DF93FC0101900020E9F7F3
S113035031971E2F181B51F0082FC02FD92F8991C8
S11303600E9498018C2F801B8117C8F38DE00E9496
S113037098018AE00E949801DF91CF911F910F911B
S113038008951092CD0080E18093CC00E8ECF0E079
S113039080818260808388E18093C90086E08093B5
S11303A0CA00089583B12FB199B120778F70822B41
S11303B09078892B08951092440110924301109271
S11303C00001109201011092020110920301109297
S11303D03D0110923E0110923F011092400190E0C5
S11303E0FC01EA5AFF4F0C94AC048091410188311E
S11303F021F0803311F08C3021F48EE60E948E04BB
S113040014C080914201813019F0823041F00DC056
S113041060E080E50E949D041092420106C060E005
S113042080E50E949D0410924201109241010895BA
S113043080914101883111F010923C018091450175
S113044090914601843F914051F480913C018E5F2C
S113045080933C01109246011092450109C080919D
S11304604501909146010196909346018093450180
S113047080913C018259809343010E948E0488E15B
S113048080934101089580914101803319F08AE0FD
S113049080933C018091450190914601843F9140B5
S11304A051F480913C018E5F80933C01109246018F
S11304B01092450109C08091450190914601019631
S11304C0909346018093450160913C016259609389
S11304D043018EE60E949D0480E3809341010895C8
S11304E080914101803619F084E180933C01809130
S11304F0450190914601883E934051F480913C011E
S11305008A5F80933C01109246011092450109C014
S11305108091450190914601019690934601809304
S1130520450160913C016259609343018EE60E944B
S11305309D0480E680934101089580914101803CAF
S113054019F08EE180933C01809145019091460120
S11305508837954051F480913C01885F80933C0139
S1130560109246011092450109C080914501909175
S113057046010196909346018093450160913C01A8
S11305806259609343018CE30E949D0480EC809344
S113059041010895809141018C3019F08AE08093E3
S11305A03C018091450190914601843F914051F472
S11305B080913C018E5F80933C0110924601109221
S11305C0450109C08091450190914601019690939F
S11305D046018093450180913C01825980934401F6
S11305E06EE60E949D048CE0809341010895809101
S11305F04101863019F084E180933C0180914501EA
S113060090914601883E934051F480913C018A5F69
S113061080933C01109246011092450109C08091DB
S113062045019091460101969093460180934501BE
S113063080913C018259809344016EE60E949D049E
S113064086E080934101089580914101833019F03F
S11306508EE180933C018091450190914601883759
S1130660954051F480913C01885F80933C01109245
S113067046011092450109C08091450190914601BF
S11306800196909346018093450180913C018259E3
S1130690809344016CE30E949D0483E080934101B4
S11306A0089580914101803819F088E280933C01DB
S11306B08091450190914601843A964051F480918D
S11306C03C01865F80933C011092460110924501E3
S11306D009C080914501909146010196909346018D
S11306E08093450160913C0162596093430188E223
S11306F00E949D0480E88093410108958091410106
S1130700813019F088E280933C01809145019091F9
S11307104601843A964051F480913C01865F80936F
S11307203C01109246011092450109C08091450197
S113073090914601019690934601809345018091E2
S11307403C0182598093440168E20E949D0481E047
S113075080934101089580EE80934101089580E7DC
S113076080934101089588E38093410108958CE1C9
S11307708093410108958EE080934101089582E0C1
S11307808093420187E080934101089581E0809342
S1130790420188E980934101089582E080934201F7
S11307A089E18093410108951092420163E280E05F
S11307B00E949D0480EF80934101089510924201AC
S11307C060E083E20E949D048FE0809341010895DC
S11307D08CEC80934101089581E08093420188ED7F
S11307E080934101089582E08093420183E38093E2
S11307F04101089582E0809342018BE1809341019D
S113080008951092420163E280E00E949D0488EF03
S11308108093410108951092420160E083E20E94B6
S11308209D048FE180934101089581E0809342010A
S11308308CED80934101089582E0809342018BE323
S11308408093410108951092420163E280E00E9486
S11308509D048CEF8093410108951092420163E25C
S113086080E00E949D048FE38093410108951092DB
S1130870420167E380E00E949D048EEF8093410172
S113088008951092420163E280E00E949D048FE784
S1130890809341010895109242018EE60E948E04D5
S11308A08FEF8093410108951F920F920FB60F921C
S11308B011248F939F938091780090917900909365
S11308C04801809347019F918F910F900FBE0F9025
S11308D01F90189584B1806F84B93F9A579884B15A
S11308E0807F84B980B38F7880BB85B1807F85B9E0
S11308F081B38F7881BB5F98509A0E94C1010E9496
S1130900750183E291E00E94A0010E94D2018093CC
S11309104901809149010E94DB01F7CF47982F9844
S11309208F9A2C9A90E09093890080938800059682
S113093090938B0080938A00089590E090938900AF
S11309408093880070E070938B0060938A004798CE
S11309502F988F9A2C9A0895EE0FFF1F0590F4910B
S10B0960E02D0994F894FFCF87
S11309680000604150574D20696E697469616C6973
S11309787A6174696F6E2066696E6973686564214B
S11309880D0A00496E697469616C69736174696FF1
S10F09986E2066696E69736865642E0049
S9030000FC
