:100000000C9456010C9473010C9473010C947301BD
:100010000C9473010C9473010C9473010C94730190
:100020000C9473010C9473010C9473010C94730180
:100030000C9473010C9473010C9473010C94730170
:100040000C9473010C9473010C9473010C94730160
:100050000C9473010C9473010C9473010C94730150
:100060000C9473010C9473010C9473010C94730140
:100070000C9473010C947E050C9473010C94730121
:100080000C9473010C9473010C9473010C94730120
:100090000C9473010C9473010C9473010C94730110
:1000A0000C9473010C9473010C9473011802BB043B
:1000B0007805050478057805A9032B0578057805EA
:1000C000780578054D0378052705410578057805FD
:1000D0007805780578057805780578051B023605DA
:1000E00078055105230578057805590578057805C3
:1000F0007805780578057805780578057805780518
:10010000780578057805780578057805370278054B
:1001100078054D0578057805780578051F0578057B
:10012000780561057805780578056905780578050D
:1001300078057805780578057805780578057805D7
:1001400078057805780578057805780578057805C7
:1001500078057805780578057805780578057805B7
:100160007805780578057805780578059902780589
:100170007805780578057805780578057805780597
:100180007805780578057805780578051B057805E4
:100190007805780578057805780578057805780577
:1001A0007805780578057805780571056104780586
:1001B0007805780578057805780578057805780557
:1001C0007805780578057805780578057805780547
:1001D0007805780578057805780578052F05780580
:1001E0007805780578057805780578057805780527
:1001F0007805780578057805780578057805780517
:100200007805780578057805780578057805780506
:1002100078057805780578057805780578057805F6
:10022000780578057805780578057805F30278056E
:1002300078057805780578057805780578057805D6
:1002400078057805450578057805780578057805F9
:1002500078057805780578057805780549057805E5
:10026000780578055D057805780578051705780522
:100270007805780578057805780578057805780596
:100280007805780578057805780578053D057805C1
:100290007805780578057805780578055505780599
:1002A00078057805650578056D05750511241FBE6F
:1002B000CFEFDAE0DEBFCDBF11E0A0E0B1E0EAE6CB
:1002C000FFE002C005900D92AC33B107D9F721E0F1
:1002D000ACE3B1E001C01D92A834B207E1F70E947F
:1002E00094050C94B3070C94000084B1806984B920
:1002F0003F9A879A84B1806684B9E0E8F0E0808113
:10030000806A8083808182608083E1E8F0E0808180
:10031000886180838081816080838FEF90E09093FB
:1003200087008093860084E091E00E94A0010895F8
:10033000E8ECF0E0908195FFFDCF8093CE0008952A
:100340000F931F93CF93DF93FC0101900020E9F7F7
:1003500031971E2F181B51F0082FC02FD92F8991CC
:100360000E9498018C2F801B8117C8F38DE00E949A
:1003700098018AE00E949801DF91CF911F910F911F
:1003800008951092CD0080E18093CC00E8ECF0E07D
:1003900080818260808388E18093C90086E08093B9
:1003A000CA00089583B12FB199B120778F70822B45
:1003B0009078892B08958F929F92AF92BF92CF929F
:1003C000DF92EF92FF926B017C01CA01B90120E03C
:1003D00030E040EF50E40E94D905A70196010E9449
:1003E00026074B015C0120E030E040EA50E4C70101
:1003F000B6010E9426079B01AC01C501B4010E9411
:100400003D060E94A506862FFF90EF90DF90CF90CB
:10041000BF90AF909F908F900895CF92DF92EF9210
:10042000FF92CF9390E0FC01EA5AFF4F0C94AD0786
:10043000109240015DC384E60E94BA05809142019A
:1004400090E020914301AC01420F511D9A01359576
:1004500027952F5F20934301820F911D95958795D6
:100460008F5F8093420188E18093400141C3809176
:100470004001803319F5C0900001D0900101E09057
:100480000201F090030120E030E040E751E4C701B1
:10049000B6010E94220718168CF420E030E040E8F4
:1004A0005FE3C701B6010E94D80560930001709315
:1004B000010180930201909303010CC080E090E061
:1004C000AAE7B4E48093000190930101A093020194
:1004D000B0930301C0E5C093430180E090E0A8E839
:1004E000B2E480933C0190933D01A0933E01B09310
:1004F0003F01209100013091010140910201509192
:100500000301BC01CD010E94DB018C9F802D1124D1
:10051000853618F48093420103C084E6809342013B
:100520006091420180E50E94C90580E3809340010B
:10053000DFC280914001803619F5C0900001D09053
:100540000101E0900201F090030120E030E040E77B
:1005500051E4C701B6010E94220718168CF420E06E
:1005600030E040E050E4C701B6010E94D805609336
:1005700000017093010180930201909303010CC06C
:1005800080E090E0AAE7B4E4809300019093010139
:10059000A0930201B0930301C6E4C093430180E03D
:1005A00090E0A8E0B3E480933C0190933D01A093D8
:1005B0003E01B0933F012091000130910101409133
:1005C000020150910301BC01CD010E94DB018C9F0F
:1005D000602D11246093420186E40E94C90580E6E3
:1005E0008093400185C280914001803C19F5C09004
:1005F0000001D0900101E0900201F090030120E0A1
:1006000030E040E751E4C701B6010E942207181606
:100610008CF420E030E040E850E4C701B6010E94CD
:10062000D8056093000170930101809302019093BB
:1006300003010CC080E090E0AAE7B4E480930001DD
:1006400090930101A0930201B0930301CCE3C09306
:10065000430180E090E0ACE4B3E480933C019093EC
:100660003D01A0933E01B0933F01209100013091E4
:1006700001014091020150910301BC01CD010E9492
:10068000DB018C9F602D1124609342018CE30E945A
:10069000C90580EC809340012BC2809140018C30D1
:1006A00019F5C0900001D0900101E0900201F09096
:1006B000030120E030E040E751E4C701B6010E94A9
:1006C000220718168CF420E030E040E85FE3C70111
:1006D000B6010E94D80560930001709301018093D8
:1006E0000201909303010CC080E090E0AAE7B4E41B
:1006F0008093000190930101A0930201B093030144
:1007000080E58093420180E090E0A8E8B2E4809325
:100710003C0190933D01A0933E01B0933F01209195
:100720000001309101014091020150910301BC018F
:10073000CD010E94DB0190914301899F802D1124FE
:100740008093430160E50E94C9058CE080934001DD
:10075000CFC180914001863019F5C0900001D09042
:100760000101E0900201F090030120E030E040E759
:1007700051E4C701B6010E94220718168CF420E04C
:1007800030E040E85FE3C701B6010E94D8056093FE
:1007900000017093010180930201909303010CC04A
:1007A00080E090E0AAE7B4E4809300019093010117
:1007B000A0930201B093030186E48093420180E09C
:1007C00090E0A8E0B3E480933C0190933D01A093B6
:1007D0003E01B0933F012091000130910101409111
:1007E000020150910301BC01CD010E94DB019091F7
:1007F0004301899F802D11248093430166E40E9468
:10080000C90586E08093400173C180914001833027
:1008100019F5C0900001D0900101E0900201F09024
:10082000030120E030E040E751E4C701B6010E9437
:10083000220718168CF420E030E040E85FE3C7019F
:10084000B6010E94D8056093000170930101809366
:100850000201909303010CC080E090E0AAE7B4E4A9
:100860008093000190930101A0930201B0930301D2
:100870008CE38093420180E090E0ACE4B3E48093A9
:100880003C0190933D01A0933E01B0933F01209124
:100890000001309101014091020150910301BC011E
:1008A000CD010E94DB0190914301899F802D11248D
:1008B000809343016CE30E94C90583E0809340016B
:1008C00017C180914001803819F5C0900001D09087
:1008D0000101E0900201F090030120E030E040E7E8
:1008E00051E4C701B6010E94220718168CF420E0DB
:1008F00030E040E251E4C701B6010E94D8056093A0
:1009000000017093010180930201909303010CC0D8
:1009100080E090E0AAE7B4E48093000190930101A5
:10092000A0930201B0930301C2E3C093430180E0AE
:1009300090E0A8E8B3E480933C0190933D01A0933C
:100940003E01B0933F01209100013091010140919F
:10095000020150910301BC01CD010E94DB018C9F7B
:10096000602D11246093420182E30E94C90580E852
:1009700080934001BDC080914001813019F5C09045
:100980000001D0900101E0900201F090030120E00D
:1009900030E040E751E4C701B6010E942207181673
:1009A0008CF420E030E040E85FE3C701B6010E942C
:1009B000D805609300017093010180930201909328
:1009C00003010CC080E090E0AAE7B4E4809300014A
:1009D00090930101A0930201B093030182E38093FD
:1009E000420180E090E0A8E8B3E480933C0190935A
:1009F0003D01A0933E01B0933F0120910001309151
:100A000001014091020150910301BC01CD010E94FE
:100A1000DB0190914301899F802D11248093430134
:100A200062E30E94C90581E08093400161C080EECD
:100A3000809340015DC080E78093400159C088E306
:100A40008093400155C08CE18093400151C08EE0FD
:100A5000809340014DC087E08093400149C081E010
:100A60008093410188E98093400142C082E08093F5
:100A7000410189E1809340013BC080EF80934001B8
:100A800037C08FE08093400133C08CEC80934001ED
:100A90002FC088ED809340012BC083E380934001F9
:100AA00027C08BE18093400123C088EF80934001F1
:100AB0001FC08FE1809340011BC08CED80934001EB
:100AC00017C08BE38093400113C08CEF80934001EB
:100AD0000FC08FE3809340010BC08EEF80934001E5
:100AE00007C08FE78093400103C08FEF80934001E0
:100AF000CF91FF90EF90DF90CF9008951F920F92CB
:100B00000FB60F9211248F939F938091780090914C
:100B1000790090934501809344019F918F910F90AC
:100B20000FBE0F901F90189584B1806F84B93F9AC3
:100B3000579884B1807F84B980B38F7880BB85B1AA
:100B4000807F85B981B38F7881BB5F980E94C10196
:100B50000E94750183E291E00E94A0018CE40E9452
:100B6000BA050E94D20180934601809146010E94FD
:100B70000D02F7CF47982F988F9A2C9A90E0909378
:100B8000890080938800059690938B0080938A005B
:100B9000089570E0709389006093880090E09093CE
:100BA0008B0080938A0047982F988F9A2C9A0895EB
:100BB0005058BB27AA270ED00BC1FCD030F001D172
:100BC00020F031F49F3F11F41EF4F1C00EF4E095D3
:100BD000E7FBE7C0E92F0DD180F3BA17620773076F
:100BE0008407950718F071F49EF525C10EF4E09581
:100BF0000B2EBA2FA02D0B01B90190010C01CA01D7
:100C0000A0011124FF27591B99F0593F50F4503E81
:100C100068F11A16F040A22F232F342F4427585F73
:100C2000F3CF469537952795A795F0405395C9F78B
:100C30007EF41F16BA0B620B730B840BBAF0915043
:100C4000A1F0FF0FBB1F661F771F881FC2F70EC0E2
:100C5000BA0F621F731F841F48F4879577956795B5
:100C6000B795F7959E3F08F0B3CF9395880F08F09E
:100C70009927EE0F9795879508950CD0A9C0A1D01C
:100C800040F098D030F021F45F3F19F08AC0511144
:100C9000D3C08DC0AED098F39923C9F35523B1F3D7
:100CA000951B550BBB27AA2762177307840738F0DB
:100CB0009F5F5F4F220F331F441FAA1FA9F333D03A
:100CC0000E2E3AF0E0E830D091505040E695001CEE
:100CD000CAF729D0FE2F27D0660F771F881FBB1FAA
:100CE000261737074807AB07B0E809F0BB0B802D84
:100CF000BF01FF2793585F4F2AF09E3F510568F0D0
:100D000050C09AC05F3FECF3983EDCF38695779530
:100D10006795B795F7959F5FC9F7880F911D9695D1
:100D2000879597F90895E1E0660F771F881FBB1F2D
:100D3000621773078407BA0720F0621B730B840BDA
:100D4000BA0BEE1F88F7E09508955BD088F09F57A7
:100D500090F0B92F9927B751A0F0D1F0660F771F07
:100D6000881F991F1AF0BA95C9F712C0B13081F0E7
:100D700062D0B1E008955FC0672F782F8827B85FF1
:100D800039F0B93FCCF3869577956795B395D9F748
:100D90003EF490958095709561957F4F8F4F9F4F52
:100DA000089597F99F6780E870E060E008959FEFED
:100DB00080EC089500240A941616170618060906F2
:100DC000089500240A9412161306140605060895C1
:100DD000092E0394000C11F4882352F0BB0F40F449
:100DE000BF2B11F460FF04C06F5F7F4F8F4F9F4F89
:100DF000089557FD9058440F551F59F05F3F71F00B
:100E00004795880F97FB991F61F09F3F79F0879571
:100E10000895121613061406551FF2CF4695F1DFFA
:100E200008C0161617061806991FF1CF869571058A
:100E3000610508940895E894BB2766277727CB01BE
:100E400097F9089566D008F48FEF08950BD0C0CFBE
:100E5000B1DF28F0B6DF18F0952309F0A2CFA7CFB5
:100E60001124EACFC6DFA0F3959FD1F3950F50E090
:100E7000551F629FF001729FBB27F00DB11D639F4C
:100E8000AA27F00DB11DAA1F649F6627B00DA11DF2
:100E9000661F829F2227B00DA11D621F739FB00D98
:100EA000A11D621F839FA00D611D221F749F332708
:100EB000A00D611D231F849F600D211D822F762FA1
:100EC0006A2F11249F5750408AF0E1F088234AF09E
:100ED000EE0FFF1FBB1F661F771F881F91505040EA
:100EE000A9F79E3F510570F05CCFA6CF5F3FECF3B2
:100EF000983EDCF3869577956795B795F795E795D6
:100F00009F5FC1F7FE2B880F911D9695879597F9E6
:100F10000895990F0008550FAA0BE0E8FEEF16168A
:100F20001706E807F907C0F012161306E407F507DD
:100F300098F0621B730B840B950B39F40A2661F051
:100F4000232B242B252B21F408950A2609F4A140F4
:100F5000A6958FEF811D811D0895EE0FFF1F05904F
:0A0F6000F491E02D0994F894FFCFFE
:100F6A000000604150574D20696E697469616C696F
:100F7A007A6174696F6E2066696E69736865642147
:100F8A000D0A00496E697469616C69736174696FED
:0C0F9A006E2066696E69736865642E0045
:00000001FF
