:100000000C9456010C9473010C9473010C947301BD
:100010000C9473010C9473010C9473010C94730190
:100020000C9473010C9473010C9473010C94730180
:100030000C9473010C9473010C9473010C94730170
:100040000C9473010C9473010C9473010C94730160
:100050000C9473010C9473010C9473010C94730150
:100060000C9473010C9473010C9473010C94730140
:100070000C9473010C9412040C9473010C9473018E
:100080000C9473010C9473010C9473010C94730120
:100090000C9473010C9473010C9473010C94730110
:1000A0000C9473010C9473010C947301F5014E03CD
:1000B0001104F40211041104C7028F031104110486
:1000C000110411049A0211048B03AC0311041104EE
:1000D0001104110411041104110411040C029D03F4
:1000E0001104C603870311041104D503110411047C
:1000F0001104110411041104110411041104110458
:100100001104110411041104110411041302110447
:100110001104BF0311041104110411048303110419
:100120001104E403110411041104F3031104110474
:100130001104110411041104110411041104110417
:100140001104110411041104110411041104110407
:1001500011041104110411041104110411041104F7
:1001600011041104110411041104110440021104BA
:1001700011041104110411041104110411041104D7
:100180001104110411041104110411047F0311045A
:1001900011041104110411041104110411041104B7
:1001A00011041104110411041104030421031104A6
:1001B0001104110411041104110411041104110497
:1001C0001104110411041104110411041104110487
:1001D00011041104110411041104110496031104F3
:1001E0001104110411041104110411041104110467
:1001F0001104110411041104110411041104110457
:100200001104110411041104110411041104110446
:100210001104110411041104110411041104110436
:100220001104110411041104110411046D021104CC
:100230001104110411041104110411041104110416
:1002400011041104B4031104110411041104110464
:10025000110411041104110411041104B803110450
:1002600011041104DD031104110411047B031104B2
:1002700011041104110411041104110411041104D6
:10028000110411041104110411041104A403110434
:10029000110411041104110411041104CD031104FB
:1002A00011041104EB031104FB030B0411241FBE02
:1002B000CFEFDAE0DEBFCDBF11E0A0E0B1E0E4EEC9
:1002C000F8E002C005900D92AC33B107D9F721E0F8
:1002D000ACE3B1E001C01D92AB34B207E1F70E947C
:1002E00028040C9470040C94000084B1806984B9D3
:1002F0003F9A879A84B1806684B9E0E8F0E0808113
:10030000806A8083808182608083E1E8F0E0808180
:10031000886180838081816080838FEF90E09093FB
:1003200087008093860084E091E00E94A0010895F8
:10033000E8ECF0E0908195FFFDCF8093CE0008952A
:100340000F931F93CF93DF93FC0101900020E9F7F7
:1003500031971E2F181B51F0082FC02FD92F8991CC
:100360000E9498018C2F801B8117C8F38DE00E949A
:1003700098018AE00E949801DF91CF911F910F911F
:1003800008951092CD0080E18093CC00E8ECF0E07D
:1003900080818260808388E18093C90086E08093B9
:1003A000CA00089583B12FB199B120778F70822B45
:1003B0009078892B08951092440110924301109275
:1003C000000110920101109202011092030110929B
:1003D0003D0110923E0110923F011092400190E0C9
:1003E000FC01EA5AFF4F0C946A048091420181306B
:1003F00019F0823041F00DC060E086E90E945B0494
:100400001092420106C060E086E90E945B041092EF
:10041000420110924101089584E60E944C0488E153
:1004200080934101089580914101803319F08AE061
:1004300080933C018091450190914601803D974019
:1004400051F480913C018D5F80933C0110924601F4
:100450001092450109C08091450190914601019695
:10046000909346018093450160913C016C596093E3
:10047000430184E60E945B0480E380934101089578
:1004800080914101803619F08EE180933C0180918A
:10049000450190914601843C994051F480913C0182
:1004A000815F80933C01109246011092450109C082
:1004B0008091450190914601019690934601809369
:1004C000450160913C016C596093430184E60E94B0
:1004D0005B0480E680934101089580914101803C56
:1004E00019F08DE280933C01809145019091460185
:1004F000843C994051F480913C018C5E80933C0196
:10050000109246011092450109C0809145019091D9
:1005100046010196909346018093450160913C010C
:100520006C596093430182E30E945B0480EC8093EA
:1005300041010895809141018C3019F08AE0809347
:100540003C018091450190914601803D974051F4D6
:1005500080913C018D5F80933C0110924601109286
:10056000450109C080914501909146010196909303
:1005700046018093450180913C018C598093440150
:1005800064E60E945B048CE08093410108958091B1
:100590004101863019F08EE180933C018091450144
:1005A00090914601843C994051F480913C01815FD7
:1005B00080933C01109246011092450109C0809140
:1005C0004501909146010196909346018093450123
:1005D00080913C018C598093440164E60E945B0445
:1005E00086E080934101089580914101833019F0A4
:1005F0008DE280933C018091450190914601843CBD
:10060000994051F480913C018C5E80933C011092A2
:1006100046011092450109C0809145019091460123
:100620000196909346018093450180913C018C593D
:100630008093440162E30E945B0483E08093410164
:10064000089580914101803819F08BE480933C013A
:100650008091450190914601843C994051F48091EC
:100660003C01875E80933C01109246011092450147
:1006700009C08091450190914601019690934601F1
:100680008093450160913C016C59609343018EE178
:100690000E945B0480E880934101089580914101AC
:1006A000813019F08BE480933C0180914501909159
:1006B0004601843C994051F480913C01875E8093CF
:1006C0003C01109246011092450109C080914501FC
:1006D0009091460101969093460180934501809147
:1006E0003C018C59809344016EE10E945B0481E0DF
:1006F00080934101089580EE80934101089580E741
:1007000080934101089588E38093410108958CE12D
:100710008093410108958EE080934101089582E025
:100720008093420187E080934101089581E08093A6
:10073000420188E980934101089582E0809342015B
:1007400089E180934101089562E380E00E945B04A7
:1007500080EF80934101089560E082E30E945B0492
:100760008FE08093410108958CEC809341010895BE
:1007700081E08093420188ED80934101089582E0F9
:100780008093420183E380934101089582E0809346
:1007900042018BE180934101089562E380E00E9471
:1007A0005B0488EF80934101089560E082E30E943A
:1007B0005B048FE180934101089581E080934201C1
:1007C0008CED80934101089582E0809342018BE398
:1007D00080934101089562E380E00E945B048CEF06
:1007E00080934101089562E380E00E945B048FE3FF
:1007F00080934101089560E082E30E945B048EEFE4
:1008000080934101089562E380E00E945B048FE7DA
:1008100080934101089584E60E944C048FEF8093F9
:10082000410108951F920F920FB60F9211248F93DA
:100830009F938091780090917900909348018093E4
:1008400047019F918F910F900FBE0F901F901895A9
:1008500084B1806F84B93F9A579884B1807F84B9FE
:1008600080B38F7880BB85B1807F85B981B38F7865
:1008700081BB5F98509A0E94C1010E94750183E27A
:1008800091E00E94A0010E94D201809349018091D1
:1008900049010E94DB01F7CF47982F988F9A2C9A35
:1008A00090E09093890080938800059690938B0048
:1008B00080938A00089590E0909389008093880047
:1008C00070E070938B0060938A0047982F988F9AFE
:1008D0002C9A0895EE0FFF1F0590F491E02D0994D6
:0408E000F894FFCFBA
:1008E4000000604150574D20696E697469616C69FC
:1008F4007A6174696F6E2066696E697368656421D4
:100904000D0A00496E697469616C69736174696F79
:0C0914006E2066696E69736865642E00D1
:00000001FF
