S00F0000526F626F5465632E7372656367
S11300000C9456000C9473000C9473000C947300BD
S11300100C9473000C9473000C9473000C94730090
S11300200C9473000C9473000C9473000C94730080
S11300300C9473000C9473000C9473000C94730070
S11300400C9473000C9473000C9473000C94730060
S11300500C9473000C9473000C9473000C94730050
S11300600C9473000C9473000C9473000C94730040
S11300700C9473000C94A6010C9473000C947300FC
S11300800C9473000C9473000C9473000C94730020
S11300900C9473000C9473000C9473000C94730010
S11300A00C9473000C9473000C94730011241FBE01
S11300B0CFEFDAE0DEBFCDBF11E0A0E0B1E0EEEFBC
S11300C0F3E002C005900D92A831B107D9F721E001
S11300D0A8E1B1E001C01D92AF31B207E1F70E947F
S11300E094010C94FD010C940000ECE7F0E0808195
S11300F0806C8083EAE7F0E0808188628083ABE7EC
S1130100B0E08C9180688C9380818068808380814A
S1130110806480830895ECE7F0E09081907F908381
S11301209081892B80830895E8ECF0E0908195FF1D
S1130130FDCF8093CE0008950F931F93CF93DF9349
S1130140FC0101900020E9F731971E2F181B51F094
S1130150082FC02FD92F89910E9494008C2F801BC7
S11301608117C8F38DE00E9494008AE00E949400F5
S1130170DF91CF911F910F9108951F93CF93DF9338
S1130180AC019C01ADECBCEC0E94EE019695879508
S113019096958795969587959C01220F331F880F16
S11301A0991F880F991F880F991F820F931FEA01C7
S11301B0C81BD90BC05D9A010E94EE01AC01569593
S11301C0479556954795569547959A010E94EE0195
S11301D09C01369527953695279536952795C9011F
S11301E0880F991F220F331F220F331F220F331F33
S11301F0280F391FCA01821B930BD0E3D80F9A0131
S11302000E94EE01AC015695479556954795569533
S113021047959A010E94EE019C01369527953695E3
S1130220279536952795C901880F991F220F331FEB
S1130230220F331F220F331F280F391FCA01821BBD
S1130240930B10E3180F9A010E94EE01AC0156952E
S1130250479556954795569547959A010E94EE0104
S1130260969587959695879596958795BC01660F83
S1130270771F9C01220F331F220F331F220F331FBE
S1130280260F371F421B530B80E3840F803311F07A
S11302900E949400103319F0812F0E949400D033EF
S11302A019F08D2F0E949400C03319F08C2F0E94F6
S11302B094008DE00E9494008AE00E949400DF91F3
S11302C0CF911F9108951092CD0080E18093CC00CE
S11302D0E8ECF0E080818260808388E18093C9004B
S11302E086E08093CA00089580911C0190911D01BD
S11302F0843F9140B8F480911E01883010F0109230
S11303001E0180911E0190E00E948B0080911E01CD
S11303108F5F80931E0180911C0190911D01843F89
S1130320914048F380E008950E9463010E947500A3
S113033080E091E00E949C0078940E947401809176
S11303401C0190911D010E94BD00F7CF1F920F92D6
S11303500FB60F9211242F933F934F935F936F9394
S11303607F938F939F93AF93BF93EF93FF9380916A
S1130370180190911901A0911A01B0911B01803AC2
S113038026E8920721E0A207B10561F481E30E9407
S11303909400109218011092190110921A011092EF
S11303A01B010BC00196A11DB11D809318019093F0
S11303B01901A0931A01B0931B01FF91EF91BF9112
S11303C0AF919F918F917F916F915F914F913F91E9
S11303D02F910F900FBE0F901F901895A29FB00100
S11303E0B39FC001A39F700D811D1124911DB29F65
S11103F0700D811D1124911D0895F894FFCF06
S11303FE496E697469616C69736174696F6E2066A4
S10B040E696E697368656400FE
S9030000FC
